11932011F46024196ALZICOOP COOP.V.                        T962404136Enrique Llorca Martinez                 1730000000000  0000000000000000000030000000002080166000000000395389000000000395389                              000000000000000                                                                                                                                                                                                                                                                          
21932011F4602419620633310X         VIDAL PEIRO, JUAN                        461F46024196   B061O                     000010000000547026   0000000000000000000054702619000000000103935                           0000000000000000000000000000000000000000                                                                                                                                                                                                                                                            
21932011F4602419620633709H         LLORCA CARBO, ENRIQUE                    461F46024196   B061O                     000010000000031884   0000000000000000000003188419000000000006058                           0000000000000000000000000000000000000000                                                                                                                                                                                                                                                            
21932011F4602419620633863B         PEREPEREZ PELLICER, TERESA               461F46024196   B061O                     000010000000043059   0000000000000000000004305919000000000008181                           0000000000000000000000000000000000000000                                                                                                                                                                                                                                                            
21932011F4602419620633864N         ENGUIX FERRUS, VICENTE                   461F46024196   B061O                     000010000000043059   0000000000000000000004305919000000000008181                           0000000000000000000000000000000000000000                                                                                                                                                                                                                                                            
21932011F4602419620633936S         BALLESTER ESPA헤, JOSE                   461F46024196   B061O                     000010000000249802   0000000000000000000024980219000000000047464                           0000000000000000000000000000000000000000                                                                                                                                                                                                                                                            
21932011F4602419620634358T         PELLICER ESPA헤, VICENTE                 461F46024196   B061O                     000010000000057390   0000000000000000000005739019000000000010905                           0000000000000000000000000000000000000000                                                                                                                                                                                                                                                            
21932011F4602419620643176D         PEREZ BOQUERA, SALVADOR                  461F46024196   B061O                     000010000000046231   0000000000000000000004623119000000000008785                           0000000000000000000000000000000000000000                                                                                                                                                                                                                                                            
21932011F4602419620680792C         HERNANDIZ PEREZ, BERNARDO                461F46024196   B061O                     000010000000057390   0000000000000000000005739019000000000010904                           0000000000000000000000000000000000000000                                                                                                                                                                                                                                                            
21932011F4602419620712318J         RIPOLL FELIU, ENRIQUE                    461F46024196   B061O                     000010000000009581   0000000000000000000000958119000000000001820                           0000000000000000000000000000000000000000                                                                                                                                                                                                                                                            
21932011F4602419620721631B         BOTELLA PUIG, FRANCISCO                  461F46024196   B061O                     000010000000052608   0000000000000000000005260819000000000009996                           0000000000000000000000000000000000000000                                                                                                                                                                                                                                                            
21932011F4602419620721634Z         ALEIXANDRE PERIS, MARIA                  461F46024196   B061O                     000010000000027101   0000000000000000000002710119000000000005150                           0000000000000000000000000000000000000000                                                                                                                                                                                                                                                            
21932011F4602419620722607K         GOMEZ SAHUQUILLO, HIGINIO                461F46024196   B061O                     000010000000009565   0000000000000000000000956519000000000001818                           0000000000000000000000000000000000000000                                                                                                                                                                                                                                                            
21932011F4602419620722617P         GARCIA BELDA, BERNARDA                   461F46024196   B061O                     000010000000009581   0000000000000000000000958119000000000001820                           0000000000000000000000000000000000000000                                                                                                                                                                                                                                                            
21932011F4602419620724397V         HIDALGO PRESENCIA, JOSEFA                461F46024196   B061O                     000010000000134072   0000000000000000000013407219000000000025474                           0000000000000000000000000000000000000000                                                                                                                                                                                                                                                            
21932011F4602419620724731Y         ROCA MATOSES, CONSUELO                   461F46024196   B061O                     000010000000249802   0000000000000000000024980219000000000047464                           0000000000000000000000000000000000000000                                                                                                                                                                                                                                                            
21932011F4602419620733368H         BONO BOTELLA, ANGELES                    461F46024196   B061O                     000010000000038324   0000000000000000000003832419000000000007280                           0000000000000000000000000000000000000000                                                                                                                                                                                                                                                            
21932011F4602419620735396E         NAVARRO ROCA, FRANCISCO                  461F46024196   B061O                     000010000000038324   0000000000000000000003832419000000000007282                           0000000000000000000000000000000000000000                                                                                                                                                                                                                                                            
21932011F4602419620735792G         MARTINEZ CLIMENT, MILAGROS               461F46024196   B061O                     000010000000031884   0000000000000000000003188419000000000006058                           0000000000000000000000000000000000000000                                                                                                                                                                                                                                                            
21932011F4602419620741229J         CARBONELL ALONSO, ROSA                   461F46024196   B061O                     000010000000014348   0000000000000000000001434819000000000002726                           0000000000000000000000000000000000000000                                                                                                                                                                                                                                                            
21932011F4602419620743188V         BLASCO MEDES, ROSA                       461F46024196   B061O                     000010000000038326   0000000000000000000003832619000000000007282                           0000000000000000000000000000000000000000                                                                                                                                                                                                                                                            
21932011F4602419620746329F         JUAN JORDAN, MERCEDES                    461F46024196   B061O                     000010000000009565   0000000000000000000000956519000000000001818                           0000000000000000000000000000000000000000                                                                                                                                                                                                                                                            
21932011F4602419620751840K         CARRIO CARBONELL, RAFAELA                461F46024196   B061O                     000010000000057390   0000000000000000000005739019000000000010904                           0000000000000000000000000000000000000000                                                                                                                                                                                                                                                            
21932011F4602419620752087S         MONTAGUD CLIMENT, MARIA CARMEN           461F46024196   B061O                     000010000000038324   0000000000000000000003832419000000000007282                           0000000000000000000000000000000000000000                                                                                                                                                                                                                                                            
21932011F4602419620756203Z         MAGRANER ESPA헤, ENRIQUE                 461F46024196   B061O                     000010000000012868   0000000000000000000001286819000000000002521                           0000000000000000000000000000000000000000                                                                                                                                                                                                                                                            
21932011F4602419620761028D         LLAVADOR FORQUET, M.ISABEL               461F46024196   B061O                     000010000000012868   0000000000000000000001286819000000000002521                           0000000000000000000000000000000000000000                                                                                                                                                                                                                                                            
21932011F4602419620772133M         CLARI HIDALGO, ELENA PILAR               461F46024196   B061O                     000010000000022318   0000000000000000000002231819000000000004240                           0000000000000000000000000000000000000000                                                                                                                                                                                                                                                            
21932011F4602419620779745G         ENRIQUE LLORCA MARTINEZ                  461F46024196   B061O                     000010000000005930   0000000000000000000000593019000000000001127                           0000000000000000000000000000000000000000                                                                                                                                                                                                                                                            
21932011F4602419620784420X         ANA RODRIGUEZ ESPA헤                     461F46024196   B061O                     000010000000005930   0000000000000000000000593019000000000001127                           0000000000000000000000000000000000000000                                                                                                                                                                                                                                                            
21932011F4602419636600239V         ESPARZA VILA, EMILIO                     461F46024196   B061O                     000010000000114974   0000000000000000000011497419000000000021844                           0000000000000000000000000000000000000000                                                                                                                                                                                                                                                            
21932011F46024196Q4667028G         JUNTA LOCAL DE RIEGOS                    461F46024196   B061O                     000010000000070642   0000000000000000000007064219000000000013422                           0000000000000000000000000000000000000000                                                                                                                                                                                                                                                            
