11932013F46024196ALZICOOP COOP.V.                        T009633333Enrique Llorca Martinez                 1730000000000  0000000000000000000021000000000353113000000000074155000000000074155                              000000000000000                                                                                                                                                                                                                                                                          
21932013F4602419620633310X         VIDAL PEIRO, JUAN                        461F46024196   B061O                     000010000000139809   000000000000000000001398092100000000002936000000000000                0000000000000000000000000000000000000000                                                                                                                                                                                                                                                            
21932013F4602419620633709H         LLORCA CARBO, ENRIQUE                    461F46024196   B061O                     000010000000005209   000000000000000000000052092100000000000109400000000000                0000000000000000000000000000000000000000                                                                                                                                                                                                                                                            
21932013F4602419620643176D         PEREZ BOQUERA, SALVADOR                  461F46024196   B061O                     000010000000011620   000000000000000000000116202100000000000244100000000000                0000000000000000000000000000000000000000                                                                                                                                                                                                                                                            
21932013F4602419620680792C         HERNANDIZ PEREZ, BERNARDO                461F46024196   B061O                     000010000000014425   000000000000000000000144252100000000000302900000000000                0000000000000000000000000000000000000000                                                                                                                                                                                                                                                            
21932013F4602419620721631B         BOTELLA PUIG, FRANCISCO                  461F46024196   B061O                     000010000000013222   000000000000000000000132222100000000000277700000000000                0000000000000000000000000000000000000000                                                                                                                                                                                                                                                            
21932013F4602419620721634Z         ALEIXANDRE PERIS, MARIA                  461F46024196   B061O                     000010000000006812   000000000000000000000068122100000000000143100000000000                0000000000000000000000000000000000000000                                                                                                                                                                                                                                                            
21932013F4602419620724397V         HIDALGO PRESENCIA, JOSEFA                461F46024196   B061O                     000010000000033698   000000000000000000000336982100000000000707600000000000                0000000000000000000000000000000000000000                                                                                                                                                                                                                                                            
21932013F4602419620733368H         BONO BOTELLA, ANGELES                    461F46024196   B061O                     000010000000009632   000000000000000000000096322100000000000202200000000000                0000000000000000000000000000000000000000                                                                                                                                                                                                                                                            
21932013F4602419620735396E         NAVARRO ROCA, FRANCISCO                  461F46024196   B061O                     000010000000009633   000000000000000000000096332100000000000202300000000000                0000000000000000000000000000000000000000                                                                                                                                                                                                                                                            
21932013F4602419620735792G         MARTINEZ CLIMENT, MILAGROS               461F46024196   B061O                     000010000000005209   000000000000000000000052092100000000000109400000000000                0000000000000000000000000000000000000000                                                                                                                                                                                                                                                            
21932013F4602419620741229J         CARBONELL ALONSO, ROSA                   461F46024196   B061O                     000010000000003606   000000000000000000000036062100000000000075800000000000                0000000000000000000000000000000000000000                                                                                                                                                                                                                                                            
21932013F4602419620751840K         CARRIO CARBONELL, RAFAELA                461F46024196   B061O                     000010000000014425   000000000000000000000144252100000000000302900000000000                0000000000000000000000000000000000000000                                                                                                                                                                                                                                                            
21932013F4602419620752087S         MONTAGUD CLIMENT, MARIA CARMEN           461F46024196   B061O                     000010000000009633   000000000000000000000096332100000000000202300000000000                0000000000000000000000000000000000000000                                                                                                                                                                                                                                                            
21932013F4602419620765077X         CLARI HIDALGO, FRANCISCO                 461F46024196   B061O                     000010000000008014   000000000000000000000080142100000000000168300000000000                0000000000000000000000000000000000000000                                                                                                                                                                                                                                                            
21932013F4602419620765902F         GARCIA GINER, AMPARO                     461F46024196   B061O                     000010000000008014   000000000000000000000080142100000000000168300000000000                0000000000000000000000000000000000000000                                                                                                                                                                                                                                                            
21932013F4602419620775186E         SALA PEDRO, ANTONIO MARIA                461F46024196   B061O                     000010000000010819   000000000000000000000108192100000000000227200000000000                0000000000000000000000000000000000000000                                                                                                                                                                                                                                                            
21932013F4602419620779745G         LLORCA MARTINEZ, ENRIQUE                 461F46024196   B061O                     000010000000004808   000000000000000000000048082100000000000101000000000000                0000000000000000000000000000000000000000                                                                                                                                                                                                                                                            
21932013F4602419620783555L         PEREZ GARCIA, MARIA ASUNCION             461F46024196   B061O                     000010000000004808   000000000000000000000048082100000000000101000000000000                0000000000000000000000000000000000000000                                                                                                                                                                                                                                                            
21932013F4602419620784420X         RODRIGUEZ ESPAÑA, ANA                    461F46024196   B061O                     000010000000004808   000000000000000000000048082100000000000101000000000000                0000000000000000000000000000000000000000                                                                                                                                                                                                                                                            
21932013F4602419620788967A         SALA PEDRO, MONICA MARIA                 461F46024196   B061O                     000010000000006011   000000000000000000000060112100000000000126200000000000                0000000000000000000000000000000000000000                                                                                                                                                                                                                                                            
21932013F4602419636600239V         ESPARZA VILA, EMILIO                     461F46024196   B061O                     000010000000028898   000000000000000000000288982100000000000606800000000000                0000000000000000000000000000000000000000                                                                                                                                                                                                                                                            
